{
  "_format": "hh-sol-artifact-1",
  "contractName": "FileStorage",
  "sourceName": "contracts/FileStorage.sol",
  "abi": [
    {
      "inputs": [
        {
          "internalType": "address",
          "name": "user",
          "type": "address"
        }
      ],
      "name": "allow",
      "outputs": [],
      "stateMutability": "nonpayable",
      "type": "function"
    },
    {
      "inputs": [
        {
          "internalType": "address",
          "name": "_user",
          "type": "address"
        }
      ],
      "name": "display",
      "outputs": [
        {
          "components": [
            {
              "internalType": "string",
              "name": "name",
              "type": "string"
            },
            {
              "internalType": "string",
              "name": "ipfsHash",
              "type": "string"
            }
          ],
          "internalType": "struct FileStorage.File[]",
          "name": "",
          "type": "tuple[]"
        }
      ],
      "stateMutability": "view",
      "type": "function"
    },
    {
      "inputs": [],
      "name": "getMyFiles",
      "outputs": [
        {
          "components": [
            {
              "internalType": "string",
              "name": "name",
              "type": "string"
            },
            {
              "internalType": "string",
              "name": "ipfsHash",
              "type": "string"
            }
          ],
          "internalType": "struct FileStorage.File[]",
          "name": "",
          "type": "tuple[]"
        }
      ],
      "stateMutability": "view",
      "type": "function"
    },
    {
      "inputs": [],
      "name": "shareAccess",
      "outputs": [
        {
          "components": [
            {
              "internalType": "address",
              "name": "user",
              "type": "address"
            },
            {
              "internalType": "bool",
              "name": "access",
              "type": "bool"
            }
          ],
          "internalType": "struct FileStorage.Access[]",
          "name": "",
          "type": "tuple[]"
        }
      ],
      "stateMutability": "view",
      "type": "function"
    },
    {
      "inputs": [
        {
          "internalType": "string",
          "name": "name",
          "type": "string"
        },
        {
          "internalType": "string",
          "name": "ipfsHash",
          "type": "string"
        }
      ],
      "name": "uploadFile",
      "outputs": [],
      "stateMutability": "nonpayable",
      "type": "function"
    }
  ],
  "bytecode": "0x608060405234801561001057600080fd5b506114eb806100206000396000f3fe608060405234801561001057600080fd5b50600436106100575760003560e01c806390a4b0df1461005c578063996d50bf1461007a578063bc8bef8114610096578063eb39113f146100b4578063ff9913e8146100e4575b600080fd5b610064610100565b6040516100719190610d12565b60405180910390f35b610094600480360381019061008f9190610e7d565b6102bf565b005b61009e61036d565b6040516100ab919061102f565b60405180910390f35b6100ce60048036038101906100c9919061107d565b610476565b6040516100db9190610d12565b60405180910390f35b6100fe60048036038101906100f9919061107d565b610736565b005b60606000803373ffffffffffffffffffffffffffffffffffffffff1673ffffffffffffffffffffffffffffffffffffffff168152602001908152602001600020805480602002602001604051908101604052809291908181526020016000905b828210156102b65783829060005260206000209060020201604051806040016040529081600082018054610193906110d9565b80601f01602080910402602001604051908101604052809291908181526020018280546101bf906110d9565b801561020c5780601f106101e15761010080835404028352916020019161020c565b820191906000526020600020905b8154815290600101906020018083116101ef57829003601f168201915b50505050508152602001600182018054610225906110d9565b80601f0160208091040260200160405190810160405280929190818152602001828054610251906110d9565b801561029e5780601f106102735761010080835404028352916020019161029e565b820191906000526020600020905b81548152906001019060200180831161028157829003601f168201915b50505050508152505081526020019060010190610160565b50505050905090565b6000803373ffffffffffffffffffffffffffffffffffffffff1673ffffffffffffffffffffffffffffffffffffffff1681526020019081526020016000206040518060400160405280848152602001838152509080600181540180825580915050600190039060005260206000209060020201600090919091909150600082015181600001908161035091906112c0565b50602082015181600101908161036691906112c0565b5050505050565b6060600260003373ffffffffffffffffffffffffffffffffffffffff1673ffffffffffffffffffffffffffffffffffffffff168152602001908152602001600020805480602002602001604051908101604052809291908181526020016000905b8282101561046d578382906000526020600020016040518060400160405290816000820160009054906101000a900473ffffffffffffffffffffffffffffffffffffffff1673ffffffffffffffffffffffffffffffffffffffff1673ffffffffffffffffffffffffffffffffffffffff1681526020016000820160149054906101000a900460ff161515151581525050815260200190600101906103ce565b50505050905090565b60603373ffffffffffffffffffffffffffffffffffffffff168273ffffffffffffffffffffffffffffffffffffffff1614806105385750600160008373ffffffffffffffffffffffffffffffffffffffff1673ffffffffffffffffffffffffffffffffffffffff16815260200190815260200160002060003373ffffffffffffffffffffffffffffffffffffffff1673ffffffffffffffffffffffffffffffffffffffff16815260200190815260200160002060009054906101000a900460ff165b610577576040517f08c379a000000000000000000000000000000000000000000000000000000000815260040161056e906113ef565b60405180910390fd5b6000808373ffffffffffffffffffffffffffffffffffffffff1673ffffffffffffffffffffffffffffffffffffffff168152602001908152602001600020805480602002602001604051908101604052809291908181526020016000905b8282101561072b5783829060005260206000209060020201604051806040016040529081600082018054610608906110d9565b80601f0160208091040260200160405190810160405280929190818152602001828054610634906110d9565b80156106815780601f1061065657610100808354040283529160200191610681565b820191906000526020600020905b81548152906001019060200180831161066457829003601f168201915b5050505050815260200160018201805461069a906110d9565b80601f01602080910402602001604051908101604052809291908181526020018280546106c6906110d9565b80156107135780601f106106e857610100808354040283529160200191610713565b820191906000526020600020905b8154815290600101906020018083116106f657829003601f168201915b505050505081525050815260200190600101906105d5565b505050509050919050565b60018060003373ffffffffffffffffffffffffffffffffffffffff1673ffffffffffffffffffffffffffffffffffffffff16815260200190815260200160002060008373ffffffffffffffffffffffffffffffffffffffff1673ffffffffffffffffffffffffffffffffffffffff16815260200190815260200160002060006101000a81548160ff021916908315150217905550600360003373ffffffffffffffffffffffffffffffffffffffff1673ffffffffffffffffffffffffffffffffffffffff16815260200190815260200160002060008273ffffffffffffffffffffffffffffffffffffffff1673ffffffffffffffffffffffffffffffffffffffff16815260200190815260200160002060009054906101000a900460ff16156109e85760005b600260003373ffffffffffffffffffffffffffffffffffffffff1673ffffffffffffffffffffffffffffffffffffffff168152602001908152602001600020805490508110156109e2578173ffffffffffffffffffffffffffffffffffffffff16600260003373ffffffffffffffffffffffffffffffffffffffff1673ffffffffffffffffffffffffffffffffffffffff168152602001908152602001600020828154811061090e5761090d61140f565b5b9060005260206000200160000160009054906101000a900473ffffffffffffffffffffffffffffffffffffffff1673ffffffffffffffffffffffffffffffffffffffff16036109cf576001600260003373ffffffffffffffffffffffffffffffffffffffff1673ffffffffffffffffffffffffffffffffffffffff16815260200190815260200160002082815481106109aa576109a961140f565b5b9060005260206000200160000160146101000a81548160ff0219169083151502179055505b80806109da9061146d565b91505061085c565b50610b79565b600260003373ffffffffffffffffffffffffffffffffffffffff1673ffffffffffffffffffffffffffffffffffffffff16815260200190815260200160002060405180604001604052808373ffffffffffffffffffffffffffffffffffffffff168152602001600115158152509080600181540180825580915050600190039060005260206000200160009091909190915060008201518160000160006101000a81548173ffffffffffffffffffffffffffffffffffffffff021916908373ffffffffffffffffffffffffffffffffffffffff16021790555060208201518160000160146101000a81548160ff02191690831515021790555050506001600360003373ffffffffffffffffffffffffffffffffffffffff1673ffffffffffffffffffffffffffffffffffffffff16815260200190815260200160002060008373ffffffffffffffffffffffffffffffffffffffff1673ffffffffffffffffffffffffffffffffffffffff16815260200190815260200160002060006101000a81548160ff0219169083151502179055505b50565b600081519050919050565b600082825260208201905092915050565b6000819050602082019050919050565b600081519050919050565b600082825260208201905092915050565b60005b83811015610be2578082015181840152602081019050610bc7565b60008484015250505050565b6000601f19601f8301169050919050565b6000610c0a82610ba8565b610c148185610bb3565b9350610c24818560208601610bc4565b610c2d81610bee565b840191505092915050565b60006040830160008301518482036000860152610c558282610bff565b91505060208301518482036020860152610c6f8282610bff565b9150508091505092915050565b6000610c888383610c38565b905092915050565b6000602082019050919050565b6000610ca882610b7c565b610cb28185610b87565b935083602082028501610cc485610b98565b8060005b85811015610d005784840389528151610ce18582610c7c565b9450610cec83610c90565b925060208a01995050600181019050610cc8565b50829750879550505050505092915050565b60006020820190508181036000830152610d2c8184610c9d565b905092915050565b6000604051905090565b600080fd5b600080fd5b600080fd5b600080fd5b7f4e487b7100000000000000000000000000000000000000000000000000000000600052604160045260246000fd5b610d8a82610bee565b810181811067ffffffffffffffff82111715610da957610da8610d52565b5b80604052505050565b6000610dbc610d34565b9050610dc88282610d81565b919050565b600067ffffffffffffffff821115610de857610de7610d52565b5b610df182610bee565b9050602081019050919050565b82818337600083830152505050565b6000610e20610e1b84610dcd565b610db2565b905082815260208101848484011115610e3c57610e3b610d4d565b5b610e47848285610dfe565b509392505050565b600082601f830112610e6457610e63610d48565b5b8135610e74848260208601610e0d565b91505092915050565b60008060408385031215610e9457610e93610d3e565b5b600083013567ffffffffffffffff811115610eb257610eb1610d43565b5b610ebe85828601610e4f565b925050602083013567ffffffffffffffff811115610edf57610ede610d43565b5b610eeb85828601610e4f565b9150509250929050565b600081519050919050565b600082825260208201905092915050565b6000819050602082019050919050565b600073ffffffffffffffffffffffffffffffffffffffff82169050919050565b6000610f4c82610f21565b9050919050565b610f5c81610f41565b82525050565b60008115159050919050565b610f7781610f62565b82525050565b604082016000820151610f936000850182610f53565b506020820151610fa66020850182610f6e565b50505050565b6000610fb88383610f7d565b60408301905092915050565b6000602082019050919050565b6000610fdc82610ef5565b610fe68185610f00565b9350610ff183610f11565b8060005b838110156110225781516110098882610fac565b975061101483610fc4565b925050600181019050610ff5565b5085935050505092915050565b600060208201905081810360008301526110498184610fd1565b905092915050565b61105a81610f41565b811461106557600080fd5b50565b60008135905061107781611051565b92915050565b60006020828403121561109357611092610d3e565b5b60006110a184828501611068565b91505092915050565b7f4e487b7100000000000000000000000000000000000000000000000000000000600052602260045260246000fd5b600060028204905060018216806110f157607f821691505b602082108103611104576111036110aa565b5b50919050565b60008190508160005260206000209050919050565b60006020601f8301049050919050565b600082821b905092915050565b60006008830261116c7fffffffffffffffffffffffffffffffffffffffffffffffffffffffffffffffff8261112f565b611176868361112f565b95508019841693508086168417925050509392505050565b6000819050919050565b6000819050919050565b60006111bd6111b86111b38461118e565b611198565b61118e565b9050919050565b6000819050919050565b6111d7836111a2565b6111eb6111e3826111c4565b84845461113c565b825550505050565b600090565b6112006111f3565b61120b8184846111ce565b505050565b5b8181101561122f576112246000826111f8565b600181019050611211565b5050565b601f821115611274576112458161110a565b61124e8461111f565b8101602085101561125d578190505b6112716112698561111f565b830182611210565b50505b505050565b600082821c905092915050565b600061129760001984600802611279565b1980831691505092915050565b60006112b08383611286565b9150826002028217905092915050565b6112c982610ba8565b67ffffffffffffffff8111156112e2576112e1610d52565b5b6112ec82546110d9565b6112f7828285611233565b600060209050601f83116001811461132a5760008415611318578287015190505b61132285826112a4565b86555061138a565b601f1984166113388661110a565b60005b828110156113605784890151825560018201915060208501945060208101905061133b565b8683101561137d5784890151611379601f891682611286565b8355505b6001600288020188555050505b505050505050565b600082825260208201905092915050565b7f596f7520646f6e27742068617665206163636573730000000000000000000000600082015250565b60006113d9601583611392565b91506113e4826113a3565b602082019050919050565b60006020820190508181036000830152611408816113cc565b9050919050565b7f4e487b7100000000000000000000000000000000000000000000000000000000600052603260045260246000fd5b7f4e487b7100000000000000000000000000000000000000000000000000000000600052601160045260246000fd5b60006114788261118e565b91507fffffffffffffffffffffffffffffffffffffffffffffffffffffffffffffffff82036114aa576114a961143e565b5b60018201905091905056fea26469706673582212200ce8c909aada85c55f3cf0f8c83e5055b079e161f4bc0d011bcf6056ea4c52e564736f6c63430008120033",
  "linkReferences": {},
  "deployedLinkReferences": {}
}