{
  "_format": "hh-sol-artifact-1",
  "contractName": "FileStorage",
  "sourceName": "contracts/FileStorage.sol",
  "abi": [
    {
      "inputs": [
        {
          "internalType": "address",
          "name": "user",
          "type": "address"
        }
      ],
      "name": "allow",
      "outputs": [],
      "stateMutability": "nonpayable",
      "type": "function"
    },
    {
      "inputs": [
        {
          "internalType": "address",
          "name": "_user",
          "type": "address"
        }
      ],
      "name": "display",
      "outputs": [
        {
          "internalType": "string[]",
          "name": "",
          "type": "string[]"
        }
      ],
      "stateMutability": "view",
      "type": "function"
    },
    {
      "inputs": [],
      "name": "getMyFiles",
      "outputs": [
        {
          "internalType": "string[]",
          "name": "",
          "type": "string[]"
        }
      ],
      "stateMutability": "view",
      "type": "function"
    },
    {
      "inputs": [],
      "name": "shareAccess",
      "outputs": [
        {
          "components": [
            {
              "internalType": "address",
              "name": "user",
              "type": "address"
            },
            {
              "internalType": "bool",
              "name": "access",
              "type": "bool"
            }
          ],
          "internalType": "struct FileStorage.Access[]",
          "name": "",
          "type": "tuple[]"
        }
      ],
      "stateMutability": "view",
      "type": "function"
    },
    {
      "inputs": [
        {
          "internalType": "string",
          "name": "url",
          "type": "string"
        }
      ],
      "name": "uploadFile",
      "outputs": [],
      "stateMutability": "nonpayable",
      "type": "function"
    }
  ],
  "bytecode": "0x608060405234801561001057600080fd5b506112ea806100206000396000f3fe608060405234801561001057600080fd5b50600436106100575760003560e01c806390a4b0df1461005c578063bc8bef811461007a578063e37ffc3014610098578063eb39113f146100b4578063ff9913e8146100e4575b600080fd5b610064610100565b6040516100719190610b40565b60405180910390f35b610082610215565b60405161008f9190610c9c565b60405180910390f35b6100b260048036038101906100ad9190610e07565b61031e565b005b6100ce60048036038101906100c99190610e7c565b610392565b6040516100db9190610b40565b60405180910390f35b6100fe60048036038101906100f99190610e7c565b6105a8565b005b60606000803373ffffffffffffffffffffffffffffffffffffffff1673ffffffffffffffffffffffffffffffffffffffff168152602001908152602001600020805480602002602001604051908101604052809291908181526020016000905b8282101561020c57838290600052602060002001805461017f90610ed8565b80601f01602080910402602001604051908101604052809291908181526020018280546101ab90610ed8565b80156101f85780601f106101cd576101008083540402835291602001916101f8565b820191906000526020600020905b8154815290600101906020018083116101db57829003601f168201915b505050505081526020019060010190610160565b50505050905090565b6060600260003373ffffffffffffffffffffffffffffffffffffffff1673ffffffffffffffffffffffffffffffffffffffff168152602001908152602001600020805480602002602001604051908101604052809291908181526020016000905b82821015610315578382906000526020600020016040518060400160405290816000820160009054906101000a900473ffffffffffffffffffffffffffffffffffffffff1673ffffffffffffffffffffffffffffffffffffffff1673ffffffffffffffffffffffffffffffffffffffff1681526020016000820160149054906101000a900460ff16151515158152505081526020019060010190610276565b50505050905090565b6000803373ffffffffffffffffffffffffffffffffffffffff1673ffffffffffffffffffffffffffffffffffffffff1681526020019081526020016000208190806001815401808255809150506001900390600052602060002001600090919091909150908161038e91906110bf565b5050565b60603373ffffffffffffffffffffffffffffffffffffffff168273ffffffffffffffffffffffffffffffffffffffff1614806104545750600160008373ffffffffffffffffffffffffffffffffffffffff1673ffffffffffffffffffffffffffffffffffffffff16815260200190815260200160002060003373ffffffffffffffffffffffffffffffffffffffff1673ffffffffffffffffffffffffffffffffffffffff16815260200190815260200160002060009054906101000a900460ff165b610493576040517f08c379a000000000000000000000000000000000000000000000000000000000815260040161048a906111ee565b60405180910390fd5b6000808373ffffffffffffffffffffffffffffffffffffffff1673ffffffffffffffffffffffffffffffffffffffff168152602001908152602001600020805480602002602001604051908101604052809291908181526020016000905b8282101561059d57838290600052602060002001805461051090610ed8565b80601f016020809104026020016040519081016040528092919081815260200182805461053c90610ed8565b80156105895780601f1061055e57610100808354040283529160200191610589565b820191906000526020600020905b81548152906001019060200180831161056c57829003601f168201915b5050505050815260200190600101906104f1565b505050509050919050565b60018060003373ffffffffffffffffffffffffffffffffffffffff1673ffffffffffffffffffffffffffffffffffffffff16815260200190815260200160002060008373ffffffffffffffffffffffffffffffffffffffff1673ffffffffffffffffffffffffffffffffffffffff16815260200190815260200160002060006101000a81548160ff021916908315150217905550600360003373ffffffffffffffffffffffffffffffffffffffff1673ffffffffffffffffffffffffffffffffffffffff16815260200190815260200160002060008273ffffffffffffffffffffffffffffffffffffffff1673ffffffffffffffffffffffffffffffffffffffff16815260200190815260200160002060009054906101000a900460ff161561085a5760005b600260003373ffffffffffffffffffffffffffffffffffffffff1673ffffffffffffffffffffffffffffffffffffffff16815260200190815260200160002080549050811015610854578173ffffffffffffffffffffffffffffffffffffffff16600260003373ffffffffffffffffffffffffffffffffffffffff1673ffffffffffffffffffffffffffffffffffffffff16815260200190815260200160002082815481106107805761077f61120e565b5b9060005260206000200160000160009054906101000a900473ffffffffffffffffffffffffffffffffffffffff1673ffffffffffffffffffffffffffffffffffffffff1603610841576001600260003373ffffffffffffffffffffffffffffffffffffffff1673ffffffffffffffffffffffffffffffffffffffff168152602001908152602001600020828154811061081c5761081b61120e565b5b9060005260206000200160000160146101000a81548160ff0219169083151502179055505b808061084c9061126c565b9150506106ce565b506109eb565b600260003373ffffffffffffffffffffffffffffffffffffffff1673ffffffffffffffffffffffffffffffffffffffff16815260200190815260200160002060405180604001604052808373ffffffffffffffffffffffffffffffffffffffff168152602001600115158152509080600181540180825580915050600190039060005260206000200160009091909190915060008201518160000160006101000a81548173ffffffffffffffffffffffffffffffffffffffff021916908373ffffffffffffffffffffffffffffffffffffffff16021790555060208201518160000160146101000a81548160ff02191690831515021790555050506001600360003373ffffffffffffffffffffffffffffffffffffffff1673ffffffffffffffffffffffffffffffffffffffff16815260200190815260200160002060008373ffffffffffffffffffffffffffffffffffffffff1673ffffffffffffffffffffffffffffffffffffffff16815260200190815260200160002060006101000a81548160ff0219169083151502179055505b50565b600081519050919050565b600082825260208201905092915050565b6000819050602082019050919050565b600081519050919050565b600082825260208201905092915050565b60005b83811015610a54578082015181840152602081019050610a39565b60008484015250505050565b6000601f19601f8301169050919050565b6000610a7c82610a1a565b610a868185610a25565b9350610a96818560208601610a36565b610a9f81610a60565b840191505092915050565b6000610ab68383610a71565b905092915050565b6000602082019050919050565b6000610ad6826109ee565b610ae081856109f9565b935083602082028501610af285610a0a565b8060005b85811015610b2e5784840389528151610b0f8582610aaa565b9450610b1a83610abe565b925060208a01995050600181019050610af6565b50829750879550505050505092915050565b60006020820190508181036000830152610b5a8184610acb565b905092915050565b600081519050919050565b600082825260208201905092915050565b6000819050602082019050919050565b600073ffffffffffffffffffffffffffffffffffffffff82169050919050565b6000610bb982610b8e565b9050919050565b610bc981610bae565b82525050565b60008115159050919050565b610be481610bcf565b82525050565b604082016000820151610c006000850182610bc0565b506020820151610c136020850182610bdb565b50505050565b6000610c258383610bea565b60408301905092915050565b6000602082019050919050565b6000610c4982610b62565b610c538185610b6d565b9350610c5e83610b7e565b8060005b83811015610c8f578151610c768882610c19565b9750610c8183610c31565b925050600181019050610c62565b5085935050505092915050565b60006020820190508181036000830152610cb68184610c3e565b905092915050565b6000604051905090565b600080fd5b600080fd5b600080fd5b600080fd5b7f4e487b7100000000000000000000000000000000000000000000000000000000600052604160045260246000fd5b610d1482610a60565b810181811067ffffffffffffffff82111715610d3357610d32610cdc565b5b80604052505050565b6000610d46610cbe565b9050610d528282610d0b565b919050565b600067ffffffffffffffff821115610d7257610d71610cdc565b5b610d7b82610a60565b9050602081019050919050565b82818337600083830152505050565b6000610daa610da584610d57565b610d3c565b905082815260208101848484011115610dc657610dc5610cd7565b5b610dd1848285610d88565b509392505050565b600082601f830112610dee57610ded610cd2565b5b8135610dfe848260208601610d97565b91505092915050565b600060208284031215610e1d57610e1c610cc8565b5b600082013567ffffffffffffffff811115610e3b57610e3a610ccd565b5b610e4784828501610dd9565b91505092915050565b610e5981610bae565b8114610e6457600080fd5b50565b600081359050610e7681610e50565b92915050565b600060208284031215610e9257610e91610cc8565b5b6000610ea084828501610e67565b91505092915050565b7f4e487b7100000000000000000000000000000000000000000000000000000000600052602260045260246000fd5b60006002820490506001821680610ef057607f821691505b602082108103610f0357610f02610ea9565b5b50919050565b60008190508160005260206000209050919050565b60006020601f8301049050919050565b600082821b905092915050565b600060088302610f6b7fffffffffffffffffffffffffffffffffffffffffffffffffffffffffffffffff82610f2e565b610f758683610f2e565b95508019841693508086168417925050509392505050565b6000819050919050565b6000819050919050565b6000610fbc610fb7610fb284610f8d565b610f97565b610f8d565b9050919050565b6000819050919050565b610fd683610fa1565b610fea610fe282610fc3565b848454610f3b565b825550505050565b600090565b610fff610ff2565b61100a818484610fcd565b505050565b5b8181101561102e57611023600082610ff7565b600181019050611010565b5050565b601f8211156110735761104481610f09565b61104d84610f1e565b8101602085101561105c578190505b61107061106885610f1e565b83018261100f565b50505b505050565b600082821c905092915050565b600061109660001984600802611078565b1980831691505092915050565b60006110af8383611085565b9150826002028217905092915050565b6110c882610a1a565b67ffffffffffffffff8111156110e1576110e0610cdc565b5b6110eb8254610ed8565b6110f6828285611032565b600060209050601f8311600181146111295760008415611117578287015190505b61112185826110a3565b865550611189565b601f19841661113786610f09565b60005b8281101561115f5784890151825560018201915060208501945060208101905061113a565b8683101561117c5784890151611178601f891682611085565b8355505b6001600288020188555050505b505050505050565b600082825260208201905092915050565b7f596f7520646f6e27742068617665206163636573730000000000000000000000600082015250565b60006111d8601583611191565b91506111e3826111a2565b602082019050919050565b60006020820190508181036000830152611207816111cb565b9050919050565b7f4e487b7100000000000000000000000000000000000000000000000000000000600052603260045260246000fd5b7f4e487b7100000000000000000000000000000000000000000000000000000000600052601160045260246000fd5b600061127782610f8d565b91507fffffffffffffffffffffffffffffffffffffffffffffffffffffffffffffffff82036112a9576112a861123d565b5b60018201905091905056fea26469706673582212202e6a60930df34c2e0c8a0532ddec80c90ab845133af1cdc37adef625f686799064736f6c63430008120033",
  "linkReferences": {},
  "deployedLinkReferences": {}
}